{
    "_format": "hh-sol-artifact-1",
    "contractName": "Skyman",
    "sourceName": "contracts/Skyman.sol",
    "abi": [
        {
            "inputs": [
                {
                    "internalType": "address",
                    "name": "initialOwner",
                    "type": "address"
                }
            ],
            "stateMutability": "nonpayable",
            "type": "constructor"
        },
        {
            "inputs": [],
            "name": "ERC721EnumerableForbiddenBatchMint",
            "type": "error"
        },
        {
            "inputs": [
                {
                    "internalType": "address",
                    "name": "sender",
                    "type": "address"
                },
                {
                    "internalType": "uint256",
                    "name": "tokenId",
                    "type": "uint256"
                },
                {
                    "internalType": "address",
                    "name": "owner",
                    "type": "address"
                }
            ],
            "name": "ERC721IncorrectOwner",
            "type": "error"
        },
        {
            "inputs": [
                {
                    "internalType": "address",
                    "name": "operator",
                    "type": "address"
                },
                {
                    "internalType": "uint256",
                    "name": "tokenId",
                    "type": "uint256"
                }
            ],
            "name": "ERC721InsufficientApproval",
            "type": "error"
        },
        {
            "inputs": [
                {
                    "internalType": "address",
                    "name": "approver",
                    "type": "address"
                }
            ],
            "name": "ERC721InvalidApprover",
            "type": "error"
        },
        {
            "inputs": [
                {
                    "internalType": "address",
                    "name": "operator",
                    "type": "address"
                }
            ],
            "name": "ERC721InvalidOperator",
            "type": "error"
        },
        {
            "inputs": [
                {
                    "internalType": "address",
                    "name": "owner",
                    "type": "address"
                }
            ],
            "name": "ERC721InvalidOwner",
            "type": "error"
        },
        {
            "inputs": [
                {
                    "internalType": "address",
                    "name": "receiver",
                    "type": "address"
                }
            ],
            "name": "ERC721InvalidReceiver",
            "type": "error"
        },
        {
            "inputs": [
                {
                    "internalType": "address",
                    "name": "sender",
                    "type": "address"
                }
            ],
            "name": "ERC721InvalidSender",
            "type": "error"
        },
        {
            "inputs": [
                {
                    "internalType": "uint256",
                    "name": "tokenId",
                    "type": "uint256"
                }
            ],
            "name": "ERC721NonexistentToken",
            "type": "error"
        },
        {
            "inputs": [
                {
                    "internalType": "address",
                    "name": "owner",
                    "type": "address"
                },
                {
                    "internalType": "uint256",
                    "name": "index",
                    "type": "uint256"
                }
            ],
            "name": "ERC721OutOfBoundsIndex",
            "type": "error"
        },
        {
            "inputs": [],
            "name": "EnforcedPause",
            "type": "error"
        },
        {
            "inputs": [],
            "name": "ExpectedPause",
            "type": "error"
        },
        {
            "inputs": [
                {
                    "internalType": "address",
                    "name": "owner",
                    "type": "address"
                }
            ],
            "name": "OwnableInvalidOwner",
            "type": "error"
        },
        {
            "inputs": [
                {
                    "internalType": "address",
                    "name": "account",
                    "type": "address"
                }
            ],
            "name": "OwnableUnauthorizedAccount",
            "type": "error"
        },
        {
            "anonymous": false,
            "inputs": [
                {
                    "indexed": true,
                    "internalType": "address",
                    "name": "owner",
                    "type": "address"
                },
                {
                    "indexed": true,
                    "internalType": "address",
                    "name": "approved",
                    "type": "address"
                },
                {
                    "indexed": true,
                    "internalType": "uint256",
                    "name": "tokenId",
                    "type": "uint256"
                }
            ],
            "name": "Approval",
            "type": "event"
        },
        {
            "anonymous": false,
            "inputs": [
                {
                    "indexed": true,
                    "internalType": "address",
                    "name": "owner",
                    "type": "address"
                },
                {
                    "indexed": true,
                    "internalType": "address",
                    "name": "operator",
                    "type": "address"
                },
                {
                    "indexed": false,
                    "internalType": "bool",
                    "name": "approved",
                    "type": "bool"
                }
            ],
            "name": "ApprovalForAll",
            "type": "event"
        },
        {
            "anonymous": false,
            "inputs": [
                {
                    "indexed": false,
                    "internalType": "uint256",
                    "name": "_fromTokenId",
                    "type": "uint256"
                },
                {
                    "indexed": false,
                    "internalType": "uint256",
                    "name": "_toTokenId",
                    "type": "uint256"
                }
            ],
            "name": "BatchMetadataUpdate",
            "type": "event"
        },
        {
            "anonymous": false,
            "inputs": [
                {
                    "indexed": false,
                    "internalType": "uint256",
                    "name": "_tokenId",
                    "type": "uint256"
                }
            ],
            "name": "MetadataUpdate",
            "type": "event"
        },
        {
            "anonymous": false,
            "inputs": [
                {
                    "indexed": true,
                    "internalType": "address",
                    "name": "previousOwner",
                    "type": "address"
                },
                {
                    "indexed": true,
                    "internalType": "address",
                    "name": "newOwner",
                    "type": "address"
                }
            ],
            "name": "OwnershipTransferred",
            "type": "event"
        },
        {
            "anonymous": false,
            "inputs": [
                {
                    "indexed": false,
                    "internalType": "address",
                    "name": "account",
                    "type": "address"
                }
            ],
            "name": "Paused",
            "type": "event"
        },
        {
            "anonymous": false,
            "inputs": [
                {
                    "indexed": true,
                    "internalType": "address",
                    "name": "from",
                    "type": "address"
                },
                {
                    "indexed": true,
                    "internalType": "address",
                    "name": "to",
                    "type": "address"
                },
                {
                    "indexed": true,
                    "internalType": "uint256",
                    "name": "tokenId",
                    "type": "uint256"
                }
            ],
            "name": "Transfer",
            "type": "event"
        },
        {
            "anonymous": false,
            "inputs": [
                {
                    "indexed": false,
                    "internalType": "address",
                    "name": "account",
                    "type": "address"
                }
            ],
            "name": "Unpaused",
            "type": "event"
        },
        {
            "inputs": [
                {
                    "internalType": "address",
                    "name": "to",
                    "type": "address"
                },
                {
                    "internalType": "uint256",
                    "name": "tokenId",
                    "type": "uint256"
                }
            ],
            "name": "approve",
            "outputs": [],
            "stateMutability": "nonpayable",
            "type": "function"
        },
        {
            "inputs": [
                {
                    "internalType": "address",
                    "name": "owner",
                    "type": "address"
                }
            ],
            "name": "balanceOf",
            "outputs": [
                {
                    "internalType": "uint256",
                    "name": "",
                    "type": "uint256"
                }
            ],
            "stateMutability": "view",
            "type": "function"
        },
        {
            "inputs": [
                {
                    "internalType": "uint256",
                    "name": "tokenId",
                    "type": "uint256"
                }
            ],
            "name": "getApproved",
            "outputs": [
                {
                    "internalType": "address",
                    "name": "",
                    "type": "address"
                }
            ],
            "stateMutability": "view",
            "type": "function"
        },
        {
            "inputs": [
                {
                    "internalType": "address",
                    "name": "owner",
                    "type": "address"
                },
                {
                    "internalType": "address",
                    "name": "operator",
                    "type": "address"
                }
            ],
            "name": "isApprovedForAll",
            "outputs": [
                {
                    "internalType": "bool",
                    "name": "",
                    "type": "bool"
                }
            ],
            "stateMutability": "view",
            "type": "function"
        },
        {
            "inputs": [
                {
                    "internalType": "string",
                    "name": "uri",
                    "type": "string"
                }
            ],
            "name": "isContentOwned",
            "outputs": [
                {
                    "internalType": "bool",
                    "name": "",
                    "type": "bool"
                }
            ],
            "stateMutability": "view",
            "type": "function"
        },
        {
            "inputs": [],
            "name": "name",
            "outputs": [
                {
                    "internalType": "string",
                    "name": "",
                    "type": "string"
                }
            ],
            "stateMutability": "view",
            "type": "function"
        },
        {
            "inputs": [],
            "name": "owner",
            "outputs": [
                {
                    "internalType": "address",
                    "name": "",
                    "type": "address"
                }
            ],
            "stateMutability": "view",
            "type": "function"
        },
        {
            "inputs": [
                {
                    "internalType": "uint256",
                    "name": "tokenId",
                    "type": "uint256"
                }
            ],
            "name": "ownerOf",
            "outputs": [
                {
                    "internalType": "address",
                    "name": "",
                    "type": "address"
                }
            ],
            "stateMutability": "view",
            "type": "function"
        },
        {
            "inputs": [],
            "name": "pause",
            "outputs": [],
            "stateMutability": "nonpayable",
            "type": "function"
        },
        {
            "inputs": [],
            "name": "paused",
            "outputs": [
                {
                    "internalType": "bool",
                    "name": "",
                    "type": "bool"
                }
            ],
            "stateMutability": "view",
            "type": "function"
        },
        {
            "inputs": [
                {
                    "internalType": "address",
                    "name": "recipient",
                    "type": "address"
                },
                {
                    "internalType": "string",
                    "name": "metadataURI",
                    "type": "string"
                }
            ],
            "name": "payToMint",
            "outputs": [
                {
                    "internalType": "uint256",
                    "name": "",
                    "type": "uint256"
                }
            ],
            "stateMutability": "payable",
            "type": "function"
        },
        {
            "inputs": [],
            "name": "renounceOwnership",
            "outputs": [],
            "stateMutability": "nonpayable",
            "type": "function"
        },
        {
            "inputs": [
                {
                    "internalType": "address",
                    "name": "to",
                    "type": "address"
                },
                {
                    "internalType": "string",
                    "name": "uri",
                    "type": "string"
                }
            ],
            "name": "safeMint",
            "outputs": [],
            "stateMutability": "nonpayable",
            "type": "function"
        },
        {
            "inputs": [
                {
                    "internalType": "address",
                    "name": "from",
                    "type": "address"
                },
                {
                    "internalType": "address",
                    "name": "to",
                    "type": "address"
                },
                {
                    "internalType": "uint256",
                    "name": "tokenId",
                    "type": "uint256"
                }
            ],
            "name": "safeTransferFrom",
            "outputs": [],
            "stateMutability": "nonpayable",
            "type": "function"
        },
        {
            "inputs": [
                {
                    "internalType": "address",
                    "name": "from",
                    "type": "address"
                },
                {
                    "internalType": "address",
                    "name": "to",
                    "type": "address"
                },
                {
                    "internalType": "uint256",
                    "name": "tokenId",
                    "type": "uint256"
                },
                {
                    "internalType": "bytes",
                    "name": "data",
                    "type": "bytes"
                }
            ],
            "name": "safeTransferFrom",
            "outputs": [],
            "stateMutability": "nonpayable",
            "type": "function"
        },
        {
            "inputs": [
                {
                    "internalType": "address",
                    "name": "operator",
                    "type": "address"
                },
                {
                    "internalType": "bool",
                    "name": "approved",
                    "type": "bool"
                }
            ],
            "name": "setApprovalForAll",
            "outputs": [],
            "stateMutability": "nonpayable",
            "type": "function"
        },
        {
            "inputs": [
                {
                    "internalType": "bytes4",
                    "name": "interfaceId",
                    "type": "bytes4"
                }
            ],
            "name": "supportsInterface",
            "outputs": [
                {
                    "internalType": "bool",
                    "name": "",
                    "type": "bool"
                }
            ],
            "stateMutability": "view",
            "type": "function"
        },
        {
            "inputs": [],
            "name": "symbol",
            "outputs": [
                {
                    "internalType": "string",
                    "name": "",
                    "type": "string"
                }
            ],
            "stateMutability": "view",
            "type": "function"
        },
        {
            "inputs": [
                {
                    "internalType": "uint256",
                    "name": "index",
                    "type": "uint256"
                }
            ],
            "name": "tokenByIndex",
            "outputs": [
                {
                    "internalType": "uint256",
                    "name": "",
                    "type": "uint256"
                }
            ],
            "stateMutability": "view",
            "type": "function"
        },
        {
            "inputs": [
                {
                    "internalType": "address",
                    "name": "owner",
                    "type": "address"
                },
                {
                    "internalType": "uint256",
                    "name": "index",
                    "type": "uint256"
                }
            ],
            "name": "tokenOfOwnerByIndex",
            "outputs": [
                {
                    "internalType": "uint256",
                    "name": "",
                    "type": "uint256"
                }
            ],
            "stateMutability": "view",
            "type": "function"
        },
        {
            "inputs": [
                {
                    "internalType": "uint256",
                    "name": "tokenId",
                    "type": "uint256"
                }
            ],
            "name": "tokenURI",
            "outputs": [
                {
                    "internalType": "string",
                    "name": "",
                    "type": "string"
                }
            ],
            "stateMutability": "view",
            "type": "function"
        },
        {
            "inputs": [],
            "name": "totalSupply",
            "outputs": [
                {
                    "internalType": "uint256",
                    "name": "",
                    "type": "uint256"
                }
            ],
            "stateMutability": "view",
            "type": "function"
        },
        {
            "inputs": [
                {
                    "internalType": "address",
                    "name": "from",
                    "type": "address"
                },
                {
                    "internalType": "address",
                    "name": "to",
                    "type": "address"
                },
                {
                    "internalType": "uint256",
                    "name": "tokenId",
                    "type": "uint256"
                }
            ],
            "name": "transferFrom",
            "outputs": [],
            "stateMutability": "nonpayable",
            "type": "function"
        },
        {
            "inputs": [
                {
                    "internalType": "address",
                    "name": "newOwner",
                    "type": "address"
                }
            ],
            "name": "transferOwnership",
            "outputs": [],
            "stateMutability": "nonpayable",
            "type": "function"
        },
        {
            "inputs": [],
            "name": "unpause",
            "outputs": [],
            "stateMutability": "nonpayable",
            "type": "function"
        }
    ],
    "bytecode": "0x60806040523480156200001157600080fd5b5060405162003a4b38038062003a4b8339818101604052810190620000379190620002a3565b806040518060400160405280600681526020017f536b796d616e00000000000000000000000000000000000000000000000000008152506040518060400160405280600381526020017f534b4100000000000000000000000000000000000000000000000000000000008152508160009081620000b591906200054f565b508060019081620000c791906200054f565b5050506000600b60006101000a81548160ff021916908315150217905550600073ffffffffffffffffffffffffffffffffffffffff168173ffffffffffffffffffffffffffffffffffffffff16036200015a5760006040517f1e4fbdf700000000000000000000000000000000000000000000000000000000815260040162000151919062000647565b60405180910390fd5b6200016b816200017360201b60201c565b505062000664565b6000600b60019054906101000a900473ffffffffffffffffffffffffffffffffffffffff16905081600b60016101000a81548173ffffffffffffffffffffffffffffffffffffffff021916908373ffffffffffffffffffffffffffffffffffffffff1602179055508173ffffffffffffffffffffffffffffffffffffffff168173ffffffffffffffffffffffffffffffffffffffff167f8be0079c531659141344cd1fd0a4f28419497f9722a3daafe3b4186f6b6457e060405160405180910390a35050565b600080fd5b600073ffffffffffffffffffffffffffffffffffffffff82169050919050565b60006200026b826200023e565b9050919050565b6200027d816200025e565b81146200028957600080fd5b50565b6000815190506200029d8162000272565b92915050565b600060208284031215620002bc57620002bb62000239565b5b6000620002cc848285016200028c565b91505092915050565b600081519050919050565b7f4e487b7100000000000000000000000000000000000000000000000000000000600052604160045260246000fd5b7f4e487b7100000000000000000000000000000000000000000000000000000000600052602260045260246000fd5b600060028204905060018216806200035757607f821691505b6020821081036200036d576200036c6200030f565b5b50919050565b60008190508160005260206000209050919050565b60006020601f8301049050919050565b600082821b905092915050565b600060088302620003d77fffffffffffffffffffffffffffffffffffffffffffffffffffffffffffffffff8262000398565b620003e3868362000398565b95508019841693508086168417925050509392505050565b6000819050919050565b6000819050919050565b6000620004306200042a6200042484620003fb565b62000405565b620003fb565b9050919050565b6000819050919050565b6200044c836200040f565b620004646200045b8262000437565b848454620003a5565b825550505050565b600090565b6200047b6200046c565b6200048881848462000441565b505050565b5b81811015620004b057620004a460008262000471565b6001810190506200048e565b5050565b601f821115620004ff57620004c98162000373565b620004d48462000388565b81016020851015620004e4578190505b620004fc620004f38562000388565b8301826200048d565b50505b505050565b600082821c905092915050565b6000620005246000198460080262000504565b1980831691505092915050565b60006200053f838362000511565b9150826002028217905092915050565b6200055a82620002d5565b67ffffffffffffffff811115620005765762000575620002e0565b5b6200058282546200033e565b6200058f828285620004b4565b600060209050601f831160018114620005c75760008415620005b2578287015190505b620005be858262000531565b8655506200062e565b601f198416620005d78662000373565b60005b828110156200060157848901518255600182019150602085019450602081019050620005da565b868310156200062157848901516200061d601f89168262000511565b8355505b6001600288020188555050505b505050505050565b62000641816200025e565b82525050565b60006020820190506200065e600083018462000636565b92915050565b6133d780620006746000396000f3fe6080604052600436106101665760003560e01c80636352211e116100d15780639f1cabc61161008a578063c87b56dd11610064578063c87b56dd1461052f578063d204c45e1461056c578063e985e9c514610595578063f2fde38b146105d257610166565b80639f1cabc6146104a0578063a22cb465146104dd578063b88d4fde1461050657610166565b80636352211e146103a257806370a08231146103df578063715018a61461041c5780638456cb59146104335780638da5cb5b1461044a57806395d89b411461047557610166565b80632f745c59116101235780632f745c591461028d5780633f4ba83a146102ca57806342842e0e146102e15780634f6ccce71461030a5780635c975abb14610347578063615fd9e21461037257610166565b806301ffc9a71461016b57806306fdde03146101a8578063081812fc146101d3578063095ea7b31461021057806318160ddd1461023957806323b872dd14610264575b600080fd5b34801561017757600080fd5b50610192600480360381019061018d9190612665565b6105fb565b60405161019f91906126ad565b60405180910390f35b3480156101b457600080fd5b506101bd61060d565b6040516101ca9190612758565b60405180910390f35b3480156101df57600080fd5b506101fa60048036038101906101f591906127b0565b61069f565b604051610207919061281e565b60405180910390f35b34801561021c57600080fd5b5061023760048036038101906102329190612865565b6106bb565b005b34801561024557600080fd5b5061024e6106d1565b60405161025b91906128b4565b60405180910390f35b34801561027057600080fd5b5061028b600480360381019061028691906128cf565b6106de565b005b34801561029957600080fd5b506102b460048036038101906102af9190612865565b6107e0565b6040516102c191906128b4565b60405180910390f35b3480156102d657600080fd5b506102df610889565b005b3480156102ed57600080fd5b50610308600480360381019061030391906128cf565b61089b565b005b34801561031657600080fd5b50610331600480360381019061032c91906127b0565b6108bb565b60405161033e91906128b4565b60405180910390f35b34801561035357600080fd5b5061035c610931565b60405161036991906126ad565b60405180910390f35b61038c60048036038101906103879190612a57565b610948565b60405161039991906128b4565b60405180910390f35b3480156103ae57600080fd5b506103c960048036038101906103c491906127b0565b610a7a565b6040516103d6919061281e565b60405180910390f35b3480156103eb57600080fd5b5061040660048036038101906104019190612ab3565b610a8c565b60405161041391906128b4565b60405180910390f35b34801561042857600080fd5b50610431610b46565b005b34801561043f57600080fd5b50610448610b5a565b005b34801561045657600080fd5b5061045f610b6c565b60405161046c919061281e565b60405180910390f35b34801561048157600080fd5b5061048a610b96565b6040516104979190612758565b60405180910390f35b3480156104ac57600080fd5b506104c760048036038101906104c29190612ae0565b610c28565b6040516104d491906126ad565b60405180910390f35b3480156104e957600080fd5b5061050460048036038101906104ff9190612b55565b610c63565b005b34801561051257600080fd5b5061052d60048036038101906105289190612c36565b610c79565b005b34801561053b57600080fd5b50610556600480360381019061055191906127b0565b610c96565b6040516105639190612758565b60405180910390f35b34801561057857600080fd5b50610593600480360381019061058e9190612a57565b610ca8565b005b3480156105a157600080fd5b506105bc60048036038101906105b79190612cb9565b610ce4565b6040516105c991906126ad565b60405180910390f35b3480156105de57600080fd5b506105f960048036038101906105f49190612ab3565b610d78565b005b600061060682610dfe565b9050919050565b60606000805461061c90612d28565b80601f016020809104026020016040519081016040528092919081815260200182805461064890612d28565b80156106955780601f1061066a57610100808354040283529160200191610695565b820191906000526020600020905b81548152906001019060200180831161067857829003601f168201915b5050505050905090565b60006106aa82610e5f565b506106b482610ee7565b9050919050565b6106cd82826106c8610f24565b610f2c565b5050565b6000600880549050905090565b600073ffffffffffffffffffffffffffffffffffffffff168273ffffffffffffffffffffffffffffffffffffffff16036107505760006040517f64a0ae92000000000000000000000000000000000000000000000000000000008152600401610747919061281e565b60405180910390fd5b6000610764838361075f610f24565b610f3e565b90508373ffffffffffffffffffffffffffffffffffffffff168173ffffffffffffffffffffffffffffffffffffffff16146107da578382826040517f64283d7b0000000000000000000000000000000000000000000000000000000081526004016107d193929190612d59565b60405180910390fd5b50505050565b60006107eb83610a8c565b82106108305782826040517fa57d13dc000000000000000000000000000000000000000000000000000000008152600401610827929190612d90565b60405180910390fd5b600660008473ffffffffffffffffffffffffffffffffffffffff1673ffffffffffffffffffffffffffffffffffffffff168152602001908152602001600020600083815260200190815260200160002054905092915050565b610891610f54565b610899610fdb565b565b6108b683838360405180602001604052806000815250610c79565b505050565b60006108c56106d1565b821061090b576000826040517fa57d13dc000000000000000000000000000000000000000000000000000000008152600401610902929190612d90565b60405180910390fd5b6008828154811061091f5761091e612db9565b5b90600052602060002001549050919050565b6000600b60009054906101000a900460ff16905090565b60006001600d8360405161095c9190612e24565b908152602001604051809103902060009054906101000a900460ff1660ff16036109bb576040517f08c379a00000000000000000000000000000000000000000000000000000000081526004016109b290612e87565b60405180910390fd5b66b1a2bc2ec50000341015610a05576040517f08c379a00000000000000000000000000000000000000000000000000000000081526004016109fc90612ef3565b60405180910390fd5b6000600c549050600c6000815480929190610a1f90612f42565b91905055506001600d84604051610a369190612e24565b908152602001604051809103902060006101000a81548160ff021916908360ff160217905550610a66848261103e565b610a708184611137565b8091505092915050565b6000610a8582610e5f565b9050919050565b60008073ffffffffffffffffffffffffffffffffffffffff168273ffffffffffffffffffffffffffffffffffffffff1603610aff5760006040517f89c62b64000000000000000000000000000000000000000000000000000000008152600401610af6919061281e565b60405180910390fd5b600360008373ffffffffffffffffffffffffffffffffffffffff1673ffffffffffffffffffffffffffffffffffffffff168152602001908152602001600020549050919050565b610b4e610f54565b610b586000611193565b565b610b62610f54565b610b6a611259565b565b6000600b60019054906101000a900473ffffffffffffffffffffffffffffffffffffffff16905090565b606060018054610ba590612d28565b80601f0160208091040260200160405190810160405280929190818152602001828054610bd190612d28565b8015610c1e5780601f10610bf357610100808354040283529160200191610c1e565b820191906000526020600020905b815481529060010190602001808311610c0157829003601f168201915b5050505050905090565b60006001600d83604051610c3c9190612e24565b908152602001604051809103902060009054906101000a900460ff1660ff16149050919050565b610c75610c6e610f24565b83836112bc565b5050565b610c848484846106de565b610c908484848461142b565b50505050565b6060610ca1826115e2565b9050919050565b610cb0610f54565b6000600c6000815480929190610cc590612f42565b919050559050610cd583826116f5565b610cdf8183611137565b505050565b6000600560008473ffffffffffffffffffffffffffffffffffffffff1673ffffffffffffffffffffffffffffffffffffffff16815260200190815260200160002060008373ffffffffffffffffffffffffffffffffffffffff1673ffffffffffffffffffffffffffffffffffffffff16815260200190815260200160002060009054906101000a900460ff16905092915050565b610d80610f54565b600073ffffffffffffffffffffffffffffffffffffffff168173ffffffffffffffffffffffffffffffffffffffff1603610df25760006040517f1e4fbdf7000000000000000000000000000000000000000000000000000000008152600401610de9919061281e565b60405180910390fd5b610dfb81611193565b50565b6000634906490660e01b7bffffffffffffffffffffffffffffffffffffffffffffffffffffffff1916827bffffffffffffffffffffffffffffffffffffffffffffffffffffffff19161480610e585750610e5782611713565b5b9050919050565b600080610e6b8361178d565b9050600073ffffffffffffffffffffffffffffffffffffffff168173ffffffffffffffffffffffffffffffffffffffff1603610ede57826040517f7e273289000000000000000000000000000000000000000000000000000000008152600401610ed591906128b4565b60405180910390fd5b80915050919050565b60006004600083815260200190815260200160002060009054906101000a900473ffffffffffffffffffffffffffffffffffffffff169050919050565b600033905090565b610f3983838360016117ca565b505050565b6000610f4b84848461198f565b90509392505050565b610f5c610f24565b73ffffffffffffffffffffffffffffffffffffffff16610f7a610b6c565b73ffffffffffffffffffffffffffffffffffffffff1614610fd957610f9d610f24565b6040517f118cdaa7000000000000000000000000000000000000000000000000000000008152600401610fd0919061281e565b60405180910390fd5b565b610fe36119ad565b6000600b60006101000a81548160ff0219169083151502179055507f5db9ee0a495bf2e6ff9c91a7834c1ba4fdd244a5e8aa4e537bd38aeae4b073aa611027610f24565b604051611034919061281e565b60405180910390a1565b600073ffffffffffffffffffffffffffffffffffffffff168273ffffffffffffffffffffffffffffffffffffffff16036110b05760006040517f64a0ae920000000000000000000000000000000000000000000000000000000081526004016110a7919061281e565b60405180910390fd5b60006110be83836000610f3e565b9050600073ffffffffffffffffffffffffffffffffffffffff168173ffffffffffffffffffffffffffffffffffffffff16146111325760006040517f73c6ac6e000000000000000000000000000000000000000000000000000000008152600401611129919061281e565b60405180910390fd5b505050565b80600a600084815260200190815260200160002090816111579190613136565b507ff8e1a15aba9398e019f0b49df1a4fde98ee17ae345cb5f6b5e2c27f5033e8ce78260405161118791906128b4565b60405180910390a15050565b6000600b60019054906101000a900473ffffffffffffffffffffffffffffffffffffffff16905081600b60016101000a81548173ffffffffffffffffffffffffffffffffffffffff021916908373ffffffffffffffffffffffffffffffffffffffff1602179055508173ffffffffffffffffffffffffffffffffffffffff168173ffffffffffffffffffffffffffffffffffffffff167f8be0079c531659141344cd1fd0a4f28419497f9722a3daafe3b4186f6b6457e060405160405180910390a35050565b6112616119ed565b6001600b60006101000a81548160ff0219169083151502179055507f62e78cea01bee320cd4e420270b5ea74000d11b0c9f74754ebdbfc544b05a2586112a5610f24565b6040516112b2919061281e565b60405180910390a1565b600073ffffffffffffffffffffffffffffffffffffffff168273ffffffffffffffffffffffffffffffffffffffff160361132d57816040517f5b08ba18000000000000000000000000000000000000000000000000000000008152600401611324919061281e565b60405180910390fd5b80600560008573ffffffffffffffffffffffffffffffffffffffff1673ffffffffffffffffffffffffffffffffffffffff16815260200190815260200160002060008473ffffffffffffffffffffffffffffffffffffffff1673ffffffffffffffffffffffffffffffffffffffff16815260200190815260200160002060006101000a81548160ff0219169083151502179055508173ffffffffffffffffffffffffffffffffffffffff168373ffffffffffffffffffffffffffffffffffffffff167f17307eab39ab6107e8899845ad3d59bd9653f200f220920489ca2b5937696c318360405161141e91906126ad565b60405180910390a3505050565b60008373ffffffffffffffffffffffffffffffffffffffff163b11156115dc578273ffffffffffffffffffffffffffffffffffffffff1663150b7a0261146f610f24565b8685856040518563ffffffff1660e01b8152600401611491949392919061325d565b6020604051808303816000875af19250505080156114cd57506040513d601f19601f820116820180604052508101906114ca91906132be565b60015b611551573d80600081146114fd576040519150601f19603f3d011682016040523d82523d6000602084013e611502565b606091505b50600081510361154957836040517f64a0ae92000000000000000000000000000000000000000000000000000000008152600401611540919061281e565b60405180910390fd5b805181602001fd5b63150b7a0260e01b7bffffffffffffffffffffffffffffffffffffffffffffffffffffffff1916817bffffffffffffffffffffffffffffffffffffffffffffffffffffffff1916146115da57836040517f64a0ae920000000000000000000000000000000000000000000000000000000081526004016115d1919061281e565b60405180910390fd5b505b50505050565b60606115ed82610e5f565b506000600a6000848152602001908152602001600020805461160e90612d28565b80601f016020809104026020016040519081016040528092919081815260200182805461163a90612d28565b80156116875780601f1061165c57610100808354040283529160200191611687565b820191906000526020600020905b81548152906001019060200180831161166a57829003601f168201915b505050505090506000611698611a2e565b905060008151036116ad5781925050506116f0565b6000825111156116e25780826040516020016116ca9291906132eb565b604051602081830303815290604052925050506116f0565b6116eb84611a45565b925050505b919050565b61170f828260405180602001604052806000815250611aae565b5050565b60007f780e9d63000000000000000000000000000000000000000000000000000000007bffffffffffffffffffffffffffffffffffffffffffffffffffffffff1916827bffffffffffffffffffffffffffffffffffffffffffffffffffffffff19161480611786575061178582611aca565b5b9050919050565b60006002600083815260200190815260200160002060009054906101000a900473ffffffffffffffffffffffffffffffffffffffff169050919050565b80806118035750600073ffffffffffffffffffffffffffffffffffffffff168273ffffffffffffffffffffffffffffffffffffffff1614155b1561193757600061181384610e5f565b9050600073ffffffffffffffffffffffffffffffffffffffff168373ffffffffffffffffffffffffffffffffffffffff161415801561187e57508273ffffffffffffffffffffffffffffffffffffffff168173ffffffffffffffffffffffffffffffffffffffff1614155b8015611891575061188f8184610ce4565b155b156118d357826040517fa9fbf51f0000000000000000000000000000000000000000000000000000000081526004016118ca919061281e565b60405180910390fd5b811561193557838573ffffffffffffffffffffffffffffffffffffffff168273ffffffffffffffffffffffffffffffffffffffff167f8c5be1e5ebec7d5bd14f71427d1e84f3dd0314c0f7b2291e5b200ac8c7c3b92560405160405180910390a45b505b836004600085815260200190815260200160002060006101000a81548173ffffffffffffffffffffffffffffffffffffffff021916908373ffffffffffffffffffffffffffffffffffffffff16021790555050505050565b60006119996119ed565b6119a4848484611bac565b90509392505050565b6119b5610931565b6119eb576040517f8dfc202b00000000000000000000000000000000000000000000000000000000815260040160405180910390fd5b565b6119f5610931565b15611a2c576040517fd93c066500000000000000000000000000000000000000000000000000000000815260040160405180910390fd5b565b606060405180602001604052806000815250905090565b6060611a5082610e5f565b506000611a5b611a2e565b90506000815111611a7b5760405180602001604052806000815250611aa6565b80611a8584611cc9565b604051602001611a969291906132eb565b6040516020818303038152906040525b915050919050565b611ab8838361103e565b611ac5600084848461142b565b505050565b60007f80ac58cd000000000000000000000000000000000000000000000000000000007bffffffffffffffffffffffffffffffffffffffffffffffffffffffff1916827bffffffffffffffffffffffffffffffffffffffffffffffffffffffff19161480611b9557507f5b5e139f000000000000000000000000000000000000000000000000000000007bffffffffffffffffffffffffffffffffffffffffffffffffffffffff1916827bffffffffffffffffffffffffffffffffffffffffffffffffffffffff1916145b80611ba55750611ba482611d97565b5b9050919050565b600080611bba858585611e01565b9050600073ffffffffffffffffffffffffffffffffffffffff168173ffffffffffffffffffffffffffffffffffffffff1603611bfe57611bf98461201b565b611c3d565b8473ffffffffffffffffffffffffffffffffffffffff168173ffffffffffffffffffffffffffffffffffffffff1614611c3c57611c3b8185612064565b5b5b600073ffffffffffffffffffffffffffffffffffffffff168573ffffffffffffffffffffffffffffffffffffffff1603611c7f57611c7a846121c5565b611cbe565b8473ffffffffffffffffffffffffffffffffffffffff168173ffffffffffffffffffffffffffffffffffffffff1614611cbd57611cbc8585612296565b5b5b809150509392505050565b606060006001611cd884612321565b01905060008167ffffffffffffffff811115611cf757611cf661292c565b5b6040519080825280601f01601f191660200182016040528015611d295781602001600182028036833780820191505090505b509050600082602001820190505b600115611d8c578080600190039150507f3031323334353637383961626364656600000000000000000000000000000000600a86061a8153600a8581611d8057611d7f61330f565b5b04945060008503611d37575b819350505050919050565b60007f01ffc9a7000000000000000000000000000000000000000000000000000000007bffffffffffffffffffffffffffffffffffffffffffffffffffffffff1916827bffffffffffffffffffffffffffffffffffffffffffffffffffffffff1916149050919050565b600080611e0d8461178d565b9050600073ffffffffffffffffffffffffffffffffffffffff168373ffffffffffffffffffffffffffffffffffffffff1614611e4f57611e4e818486612474565b5b600073ffffffffffffffffffffffffffffffffffffffff168173ffffffffffffffffffffffffffffffffffffffff1614611ee057611e916000856000806117ca565b6001600360008373ffffffffffffffffffffffffffffffffffffffff1673ffffffffffffffffffffffffffffffffffffffff168152602001908152602001600020600082825403925050819055505b600073ffffffffffffffffffffffffffffffffffffffff168573ffffffffffffffffffffffffffffffffffffffff1614611f63576001600360008773ffffffffffffffffffffffffffffffffffffffff1673ffffffffffffffffffffffffffffffffffffffff168152602001908152602001600020600082825401925050819055505b846002600086815260200190815260200160002060006101000a81548173ffffffffffffffffffffffffffffffffffffffff021916908373ffffffffffffffffffffffffffffffffffffffff160217905550838573ffffffffffffffffffffffffffffffffffffffff168273ffffffffffffffffffffffffffffffffffffffff167fddf252ad1be2c89b69c2b068fc378daa952ba7f163c4a11628f55a4df523b3ef60405160405180910390a4809150509392505050565b6008805490506009600083815260200190815260200160002081905550600881908060018154018082558091505060019003906000526020600020016000909190919091505550565b600061206f83610a8c565b9050600060076000848152602001908152602001600020549050818114612154576000600660008673ffffffffffffffffffffffffffffffffffffffff1673ffffffffffffffffffffffffffffffffffffffff168152602001908152602001600020600084815260200190815260200160002054905080600660008773ffffffffffffffffffffffffffffffffffffffff1673ffffffffffffffffffffffffffffffffffffffff168152602001908152602001600020600084815260200190815260200160002081905550816007600083815260200190815260200160002081905550505b6007600084815260200190815260200160002060009055600660008573ffffffffffffffffffffffffffffffffffffffff1673ffffffffffffffffffffffffffffffffffffffff16815260200190815260200160002060008381526020019081526020016000206000905550505050565b600060016008805490506121d9919061333e565b905060006009600084815260200190815260200160002054905060006008838154811061220957612208612db9565b5b90600052602060002001549050806008838154811061222b5761222a612db9565b5b90600052602060002001819055508160096000838152602001908152602001600020819055506009600085815260200190815260200160002060009055600880548061227a57612279613372565b5b6001900381819060005260206000200160009055905550505050565b600060016122a384610a8c565b6122ad919061333e565b905081600660008573ffffffffffffffffffffffffffffffffffffffff1673ffffffffffffffffffffffffffffffffffffffff168152602001908152602001600020600083815260200190815260200160002081905550806007600084815260200190815260200160002081905550505050565b600080600090507a184f03e93ff9f4daa797ed6e38ed64bf6a1f010000000000000000831061237f577a184f03e93ff9f4daa797ed6e38ed64bf6a1f01000000000000000083816123755761237461330f565b5b0492506040810190505b6d04ee2d6d415b85acef810000000083106123bc576d04ee2d6d415b85acef810000000083816123b2576123b161330f565b5b0492506020810190505b662386f26fc1000083106123eb57662386f26fc1000083816123e1576123e061330f565b5b0492506010810190505b6305f5e1008310612414576305f5e100838161240a5761240961330f565b5b0492506008810190505b612710831061243957612710838161242f5761242e61330f565b5b0492506004810190505b6064831061245c57606483816124525761245161330f565b5b0492506002810190505b600a831061246b576001810190505b80915050919050565b61247f838383612538565b61253357600073ffffffffffffffffffffffffffffffffffffffff168373ffffffffffffffffffffffffffffffffffffffff16036124f457806040517f7e2732890000000000000000000000000000000000000000000000000000000081526004016124eb91906128b4565b60405180910390fd5b81816040517f177e802f00000000000000000000000000000000000000000000000000000000815260040161252a929190612d90565b60405180910390fd5b505050565b60008073ffffffffffffffffffffffffffffffffffffffff168373ffffffffffffffffffffffffffffffffffffffff16141580156125f057508273ffffffffffffffffffffffffffffffffffffffff168473ffffffffffffffffffffffffffffffffffffffff1614806125b157506125b08484610ce4565b5b806125ef57508273ffffffffffffffffffffffffffffffffffffffff166125d783610ee7565b73ffffffffffffffffffffffffffffffffffffffff16145b5b90509392505050565b6000604051905090565b600080fd5b600080fd5b60007fffffffff0000000000000000000000000000000000000000000000000000000082169050919050565b6126428161260d565b811461264d57600080fd5b50565b60008135905061265f81612639565b92915050565b60006020828403121561267b5761267a612603565b5b600061268984828501612650565b91505092915050565b60008115159050919050565b6126a781612692565b82525050565b60006020820190506126c2600083018461269e565b92915050565b600081519050919050565b600082825260208201905092915050565b60005b838110156127025780820151818401526020810190506126e7565b60008484015250505050565b6000601f19601f8301169050919050565b600061272a826126c8565b61273481856126d3565b93506127448185602086016126e4565b61274d8161270e565b840191505092915050565b60006020820190508181036000830152612772818461271f565b905092915050565b6000819050919050565b61278d8161277a565b811461279857600080fd5b50565b6000813590506127aa81612784565b92915050565b6000602082840312156127c6576127c5612603565b5b60006127d48482850161279b565b91505092915050565b600073ffffffffffffffffffffffffffffffffffffffff82169050919050565b6000612808826127dd565b9050919050565b612818816127fd565b82525050565b6000602082019050612833600083018461280f565b92915050565b612842816127fd565b811461284d57600080fd5b50565b60008135905061285f81612839565b92915050565b6000806040838503121561287c5761287b612603565b5b600061288a85828601612850565b925050602061289b8582860161279b565b9150509250929050565b6128ae8161277a565b82525050565b60006020820190506128c960008301846128a5565b92915050565b6000806000606084860312156128e8576128e7612603565b5b60006128f686828701612850565b935050602061290786828701612850565b92505060406129188682870161279b565b9150509250925092565b600080fd5b600080fd5b7f4e487b7100000000000000000000000000000000000000000000000000000000600052604160045260246000fd5b6129648261270e565b810181811067ffffffffffffffff821117156129835761298261292c565b5b80604052505050565b60006129966125f9565b90506129a2828261295b565b919050565b600067ffffffffffffffff8211156129c2576129c161292c565b5b6129cb8261270e565b9050602081019050919050565b82818337600083830152505050565b60006129fa6129f5846129a7565b61298c565b905082815260208101848484011115612a1657612a15612927565b5b612a218482856129d8565b509392505050565b600082601f830112612a3e57612a3d612922565b5b8135612a4e8482602086016129e7565b91505092915050565b60008060408385031215612a6e57612a6d612603565b5b6000612a7c85828601612850565b925050602083013567ffffffffffffffff811115612a9d57612a9c612608565b5b612aa985828601612a29565b9150509250929050565b600060208284031215612ac957612ac8612603565b5b6000612ad784828501612850565b91505092915050565b600060208284031215612af657612af5612603565b5b600082013567ffffffffffffffff811115612b1457612b13612608565b5b612b2084828501612a29565b91505092915050565b612b3281612692565b8114612b3d57600080fd5b50565b600081359050612b4f81612b29565b92915050565b60008060408385031215612b6c57612b6b612603565b5b6000612b7a85828601612850565b9250506020612b8b85828601612b40565b9150509250929050565b600067ffffffffffffffff821115612bb057612baf61292c565b5b612bb98261270e565b9050602081019050919050565b6000612bd9612bd484612b95565b61298c565b905082815260208101848484011115612bf557612bf4612927565b5b612c008482856129d8565b509392505050565b600082601f830112612c1d57612c1c612922565b5b8135612c2d848260208601612bc6565b91505092915050565b60008060008060808587031215612c5057612c4f612603565b5b6000612c5e87828801612850565b9450506020612c6f87828801612850565b9350506040612c808782880161279b565b925050606085013567ffffffffffffffff811115612ca157612ca0612608565b5b612cad87828801612c08565b91505092959194509250565b60008060408385031215612cd057612ccf612603565b5b6000612cde85828601612850565b9250506020612cef85828601612850565b9150509250929050565b7f4e487b7100000000000000000000000000000000000000000000000000000000600052602260045260246000fd5b60006002820490506001821680612d4057607f821691505b602082108103612d5357612d52612cf9565b5b50919050565b6000606082019050612d6e600083018661280f565b612d7b60208301856128a5565b612d88604083018461280f565b949350505050565b6000604082019050612da5600083018561280f565b612db260208301846128a5565b9392505050565b7f4e487b7100000000000000000000000000000000000000000000000000000000600052603260045260246000fd5b600081905092915050565b6000612dfe826126c8565b612e088185612de8565b9350612e188185602086016126e4565b80840191505092915050565b6000612e308284612df3565b915081905092915050565b7f4e465420616c7265616479206d696e7465642100000000000000000000000000600082015250565b6000612e716013836126d3565b9150612e7c82612e3b565b602082019050919050565b60006020820190508181036000830152612ea081612e64565b9050919050565b7f4e65656420746f20706179207570210000000000000000000000000000000000600082015250565b6000612edd600f836126d3565b9150612ee882612ea7565b602082019050919050565b60006020820190508181036000830152612f0c81612ed0565b9050919050565b7f4e487b7100000000000000000000000000000000000000000000000000000000600052601160045260246000fd5b6000612f4d8261277a565b91507fffffffffffffffffffffffffffffffffffffffffffffffffffffffffffffffff8203612f7f57612f7e612f13565b5b600182019050919050565b60008190508160005260206000209050919050565b60006020601f8301049050919050565b600082821b905092915050565b600060088302612fec7fffffffffffffffffffffffffffffffffffffffffffffffffffffffffffffffff82612faf565b612ff68683612faf565b95508019841693508086168417925050509392505050565b6000819050919050565b600061303361302e6130298461277a565b61300e565b61277a565b9050919050565b6000819050919050565b61304d83613018565b6130616130598261303a565b848454612fbc565b825550505050565b600090565b613076613069565b613081818484613044565b505050565b5b818110156130a55761309a60008261306e565b600181019050613087565b5050565b601f8211156130ea576130bb81612f8a565b6130c484612f9f565b810160208510156130d3578190505b6130e76130df85612f9f565b830182613086565b50505b505050565b600082821c905092915050565b600061310d600019846008026130ef565b1980831691505092915050565b600061312683836130fc565b9150826002028217905092915050565b61313f826126c8565b67ffffffffffffffff8111156131585761315761292c565b5b6131628254612d28565b61316d8282856130a9565b600060209050601f8311600181146131a0576000841561318e578287015190505b613198858261311a565b865550613200565b601f1984166131ae86612f8a565b60005b828110156131d6578489015182556001820191506020850194506020810190506131b1565b868310156131f357848901516131ef601f8916826130fc565b8355505b6001600288020188555050505b505050505050565b600081519050919050565b600082825260208201905092915050565b600061322f82613208565b6132398185613213565b93506132498185602086016126e4565b6132528161270e565b840191505092915050565b6000608082019050613272600083018761280f565b61327f602083018661280f565b61328c60408301856128a5565b818103606083015261329e8184613224565b905095945050505050565b6000815190506132b881612639565b92915050565b6000602082840312156132d4576132d3612603565b5b60006132e2848285016132a9565b91505092915050565b60006132f78285612df3565b91506133038284612df3565b91508190509392505050565b7f4e487b7100000000000000000000000000000000000000000000000000000000600052601260045260246000fd5b60006133498261277a565b91506133548361277a565b925082820390508181111561336c5761336b612f13565b5b92915050565b7f4e487b7100000000000000000000000000000000000000000000000000000000600052603160045260246000fdfea26469706673582212209f6243dea193a634b74f65e0ca665656113b2f48cad42f70f2f1d97fea9fcb7d64736f6c63430008140033",
    "linkReferences": {},
    "deployedLinkReferences": {}
}