{
  "_format": "hh-sol-artifact-1",
  "contractName": "Skyman",
  "sourceName": "contracts/Skyman.sol",
  "abi": [
    {
      "inputs": [
        {
          "internalType": "address",
          "name": "initialOwner",
          "type": "address"
        }
      ],
      "stateMutability": "nonpayable",
      "type": "constructor"
    },
    {
      "inputs": [],
      "name": "ERC721EnumerableForbiddenBatchMint",
      "type": "error"
    },
    {
      "inputs": [
        {
          "internalType": "address",
          "name": "sender",
          "type": "address"
        },
        {
          "internalType": "uint256",
          "name": "tokenId",
          "type": "uint256"
        },
        {
          "internalType": "address",
          "name": "owner",
          "type": "address"
        }
      ],
      "name": "ERC721IncorrectOwner",
      "type": "error"
    },
    {
      "inputs": [
        {
          "internalType": "address",
          "name": "operator",
          "type": "address"
        },
        {
          "internalType": "uint256",
          "name": "tokenId",
          "type": "uint256"
        }
      ],
      "name": "ERC721InsufficientApproval",
      "type": "error"
    },
    {
      "inputs": [
        {
          "internalType": "address",
          "name": "approver",
          "type": "address"
        }
      ],
      "name": "ERC721InvalidApprover",
      "type": "error"
    },
    {
      "inputs": [
        {
          "internalType": "address",
          "name": "operator",
          "type": "address"
        }
      ],
      "name": "ERC721InvalidOperator",
      "type": "error"
    },
    {
      "inputs": [
        {
          "internalType": "address",
          "name": "owner",
          "type": "address"
        }
      ],
      "name": "ERC721InvalidOwner",
      "type": "error"
    },
    {
      "inputs": [
        {
          "internalType": "address",
          "name": "receiver",
          "type": "address"
        }
      ],
      "name": "ERC721InvalidReceiver",
      "type": "error"
    },
    {
      "inputs": [
        {
          "internalType": "address",
          "name": "sender",
          "type": "address"
        }
      ],
      "name": "ERC721InvalidSender",
      "type": "error"
    },
    {
      "inputs": [
        {
          "internalType": "uint256",
          "name": "tokenId",
          "type": "uint256"
        }
      ],
      "name": "ERC721NonexistentToken",
      "type": "error"
    },
    {
      "inputs": [
        {
          "internalType": "address",
          "name": "owner",
          "type": "address"
        },
        {
          "internalType": "uint256",
          "name": "index",
          "type": "uint256"
        }
      ],
      "name": "ERC721OutOfBoundsIndex",
      "type": "error"
    },
    {
      "inputs": [],
      "name": "EnforcedPause",
      "type": "error"
    },
    {
      "inputs": [],
      "name": "ExpectedPause",
      "type": "error"
    },
    {
      "inputs": [
        {
          "internalType": "address",
          "name": "owner",
          "type": "address"
        }
      ],
      "name": "OwnableInvalidOwner",
      "type": "error"
    },
    {
      "inputs": [
        {
          "internalType": "address",
          "name": "account",
          "type": "address"
        }
      ],
      "name": "OwnableUnauthorizedAccount",
      "type": "error"
    },
    {
      "anonymous": false,
      "inputs": [
        {
          "indexed": true,
          "internalType": "address",
          "name": "owner",
          "type": "address"
        },
        {
          "indexed": true,
          "internalType": "address",
          "name": "approved",
          "type": "address"
        },
        {
          "indexed": true,
          "internalType": "uint256",
          "name": "tokenId",
          "type": "uint256"
        }
      ],
      "name": "Approval",
      "type": "event"
    },
    {
      "anonymous": false,
      "inputs": [
        {
          "indexed": true,
          "internalType": "address",
          "name": "owner",
          "type": "address"
        },
        {
          "indexed": true,
          "internalType": "address",
          "name": "operator",
          "type": "address"
        },
        {
          "indexed": false,
          "internalType": "bool",
          "name": "approved",
          "type": "bool"
        }
      ],
      "name": "ApprovalForAll",
      "type": "event"
    },
    {
      "anonymous": false,
      "inputs": [
        {
          "indexed": false,
          "internalType": "uint256",
          "name": "_fromTokenId",
          "type": "uint256"
        },
        {
          "indexed": false,
          "internalType": "uint256",
          "name": "_toTokenId",
          "type": "uint256"
        }
      ],
      "name": "BatchMetadataUpdate",
      "type": "event"
    },
    {
      "anonymous": false,
      "inputs": [
        {
          "indexed": false,
          "internalType": "uint256",
          "name": "_tokenId",
          "type": "uint256"
        }
      ],
      "name": "MetadataUpdate",
      "type": "event"
    },
    {
      "anonymous": false,
      "inputs": [
        {
          "indexed": true,
          "internalType": "address",
          "name": "previousOwner",
          "type": "address"
        },
        {
          "indexed": true,
          "internalType": "address",
          "name": "newOwner",
          "type": "address"
        }
      ],
      "name": "OwnershipTransferred",
      "type": "event"
    },
    {
      "anonymous": false,
      "inputs": [
        {
          "indexed": false,
          "internalType": "address",
          "name": "account",
          "type": "address"
        }
      ],
      "name": "Paused",
      "type": "event"
    },
    {
      "anonymous": false,
      "inputs": [
        {
          "indexed": true,
          "internalType": "address",
          "name": "from",
          "type": "address"
        },
        {
          "indexed": true,
          "internalType": "address",
          "name": "to",
          "type": "address"
        },
        {
          "indexed": true,
          "internalType": "uint256",
          "name": "tokenId",
          "type": "uint256"
        }
      ],
      "name": "Transfer",
      "type": "event"
    },
    {
      "anonymous": false,
      "inputs": [
        {
          "indexed": false,
          "internalType": "address",
          "name": "account",
          "type": "address"
        }
      ],
      "name": "Unpaused",
      "type": "event"
    },
    {
      "inputs": [
        {
          "internalType": "address",
          "name": "to",
          "type": "address"
        },
        {
          "internalType": "uint256",
          "name": "tokenId",
          "type": "uint256"
        }
      ],
      "name": "approve",
      "outputs": [],
      "stateMutability": "nonpayable",
      "type": "function"
    },
    {
      "inputs": [
        {
          "internalType": "address",
          "name": "owner",
          "type": "address"
        }
      ],
      "name": "balanceOf",
      "outputs": [
        {
          "internalType": "uint256",
          "name": "",
          "type": "uint256"
        }
      ],
      "stateMutability": "view",
      "type": "function"
    },
    {
      "inputs": [
        {
          "internalType": "uint256",
          "name": "tokenId",
          "type": "uint256"
        }
      ],
      "name": "getApproved",
      "outputs": [
        {
          "internalType": "address",
          "name": "",
          "type": "address"
        }
      ],
      "stateMutability": "view",
      "type": "function"
    },
    {
      "inputs": [
        {
          "internalType": "address",
          "name": "owner",
          "type": "address"
        },
        {
          "internalType": "address",
          "name": "operator",
          "type": "address"
        }
      ],
      "name": "isApprovedForAll",
      "outputs": [
        {
          "internalType": "bool",
          "name": "",
          "type": "bool"
        }
      ],
      "stateMutability": "view",
      "type": "function"
    },
    {
      "inputs": [
        {
          "internalType": "string",
          "name": "uri",
          "type": "string"
        }
      ],
      "name": "isContentOwned",
      "outputs": [
        {
          "internalType": "bool",
          "name": "",
          "type": "bool"
        }
      ],
      "stateMutability": "view",
      "type": "function"
    },
    {
      "inputs": [],
      "name": "name",
      "outputs": [
        {
          "internalType": "string",
          "name": "",
          "type": "string"
        }
      ],
      "stateMutability": "view",
      "type": "function"
    },
    {
      "inputs": [],
      "name": "owner",
      "outputs": [
        {
          "internalType": "address",
          "name": "",
          "type": "address"
        }
      ],
      "stateMutability": "view",
      "type": "function"
    },
    {
      "inputs": [
        {
          "internalType": "uint256",
          "name": "tokenId",
          "type": "uint256"
        }
      ],
      "name": "ownerOf",
      "outputs": [
        {
          "internalType": "address",
          "name": "",
          "type": "address"
        }
      ],
      "stateMutability": "view",
      "type": "function"
    },
    {
      "inputs": [],
      "name": "pause",
      "outputs": [],
      "stateMutability": "nonpayable",
      "type": "function"
    },
    {
      "inputs": [],
      "name": "paused",
      "outputs": [
        {
          "internalType": "bool",
          "name": "",
          "type": "bool"
        }
      ],
      "stateMutability": "view",
      "type": "function"
    },
    {
      "inputs": [],
      "name": "renounceOwnership",
      "outputs": [],
      "stateMutability": "nonpayable",
      "type": "function"
    },
    {
      "inputs": [
        {
          "internalType": "address",
          "name": "to",
          "type": "address"
        },
        {
          "internalType": "string",
          "name": "uri",
          "type": "string"
        }
      ],
      "name": "safeMint",
      "outputs": [],
      "stateMutability": "payable",
      "type": "function"
    },
    {
      "inputs": [
        {
          "internalType": "address",
          "name": "from",
          "type": "address"
        },
        {
          "internalType": "address",
          "name": "to",
          "type": "address"
        },
        {
          "internalType": "uint256",
          "name": "tokenId",
          "type": "uint256"
        }
      ],
      "name": "safeTransferFrom",
      "outputs": [],
      "stateMutability": "nonpayable",
      "type": "function"
    },
    {
      "inputs": [
        {
          "internalType": "address",
          "name": "from",
          "type": "address"
        },
        {
          "internalType": "address",
          "name": "to",
          "type": "address"
        },
        {
          "internalType": "uint256",
          "name": "tokenId",
          "type": "uint256"
        },
        {
          "internalType": "bytes",
          "name": "data",
          "type": "bytes"
        }
      ],
      "name": "safeTransferFrom",
      "outputs": [],
      "stateMutability": "nonpayable",
      "type": "function"
    },
    {
      "inputs": [
        {
          "internalType": "address",
          "name": "operator",
          "type": "address"
        },
        {
          "internalType": "bool",
          "name": "approved",
          "type": "bool"
        }
      ],
      "name": "setApprovalForAll",
      "outputs": [],
      "stateMutability": "nonpayable",
      "type": "function"
    },
    {
      "inputs": [
        {
          "internalType": "bytes4",
          "name": "interfaceId",
          "type": "bytes4"
        }
      ],
      "name": "supportsInterface",
      "outputs": [
        {
          "internalType": "bool",
          "name": "",
          "type": "bool"
        }
      ],
      "stateMutability": "view",
      "type": "function"
    },
    {
      "inputs": [],
      "name": "symbol",
      "outputs": [
        {
          "internalType": "string",
          "name": "",
          "type": "string"
        }
      ],
      "stateMutability": "view",
      "type": "function"
    },
    {
      "inputs": [
        {
          "internalType": "uint256",
          "name": "index",
          "type": "uint256"
        }
      ],
      "name": "tokenByIndex",
      "outputs": [
        {
          "internalType": "uint256",
          "name": "",
          "type": "uint256"
        }
      ],
      "stateMutability": "view",
      "type": "function"
    },
    {
      "inputs": [
        {
          "internalType": "address",
          "name": "owner",
          "type": "address"
        },
        {
          "internalType": "uint256",
          "name": "index",
          "type": "uint256"
        }
      ],
      "name": "tokenOfOwnerByIndex",
      "outputs": [
        {
          "internalType": "uint256",
          "name": "",
          "type": "uint256"
        }
      ],
      "stateMutability": "view",
      "type": "function"
    },
    {
      "inputs": [
        {
          "internalType": "uint256",
          "name": "tokenId",
          "type": "uint256"
        }
      ],
      "name": "tokenURI",
      "outputs": [
        {
          "internalType": "string",
          "name": "",
          "type": "string"
        }
      ],
      "stateMutability": "view",
      "type": "function"
    },
    {
      "inputs": [],
      "name": "totalSupply",
      "outputs": [
        {
          "internalType": "uint256",
          "name": "",
          "type": "uint256"
        }
      ],
      "stateMutability": "view",
      "type": "function"
    },
    {
      "inputs": [
        {
          "internalType": "address",
          "name": "from",
          "type": "address"
        },
        {
          "internalType": "address",
          "name": "to",
          "type": "address"
        },
        {
          "internalType": "uint256",
          "name": "tokenId",
          "type": "uint256"
        }
      ],
      "name": "transferFrom",
      "outputs": [],
      "stateMutability": "nonpayable",
      "type": "function"
    },
    {
      "inputs": [
        {
          "internalType": "address",
          "name": "newOwner",
          "type": "address"
        }
      ],
      "name": "transferOwnership",
      "outputs": [],
      "stateMutability": "nonpayable",
      "type": "function"
    },
    {
      "inputs": [],
      "name": "unpause",
      "outputs": [],
      "stateMutability": "nonpayable",
      "type": "function"
    }
  ],
  "bytecode": "0x60806040523480156200001157600080fd5b5060405162003976380380620039768339818101604052810190620000379190620002a3565b806040518060400160405280600681526020017f536b796d616e00000000000000000000000000000000000000000000000000008152506040518060400160405280600381526020017f534b4100000000000000000000000000000000000000000000000000000000008152508160009081620000b591906200054f565b508060019081620000c791906200054f565b5050506000600b60006101000a81548160ff021916908315150217905550600073ffffffffffffffffffffffffffffffffffffffff168173ffffffffffffffffffffffffffffffffffffffff16036200015a5760006040517f1e4fbdf700000000000000000000000000000000000000000000000000000000815260040162000151919062000647565b60405180910390fd5b6200016b816200017360201b60201c565b505062000664565b6000600b60019054906101000a900473ffffffffffffffffffffffffffffffffffffffff16905081600b60016101000a81548173ffffffffffffffffffffffffffffffffffffffff021916908373ffffffffffffffffffffffffffffffffffffffff1602179055508173ffffffffffffffffffffffffffffffffffffffff168173ffffffffffffffffffffffffffffffffffffffff167f8be0079c531659141344cd1fd0a4f28419497f9722a3daafe3b4186f6b6457e060405160405180910390a35050565b600080fd5b600073ffffffffffffffffffffffffffffffffffffffff82169050919050565b60006200026b826200023e565b9050919050565b6200027d816200025e565b81146200028957600080fd5b50565b6000815190506200029d8162000272565b92915050565b600060208284031215620002bc57620002bb62000239565b5b6000620002cc848285016200028c565b91505092915050565b600081519050919050565b7f4e487b7100000000000000000000000000000000000000000000000000000000600052604160045260246000fd5b7f4e487b7100000000000000000000000000000000000000000000000000000000600052602260045260246000fd5b600060028204905060018216806200035757607f821691505b6020821081036200036d576200036c6200030f565b5b50919050565b60008190508160005260206000209050919050565b60006020601f8301049050919050565b600082821b905092915050565b600060088302620003d77fffffffffffffffffffffffffffffffffffffffffffffffffffffffffffffffff8262000398565b620003e3868362000398565b95508019841693508086168417925050509392505050565b6000819050919050565b6000819050919050565b6000620004306200042a6200042484620003fb565b62000405565b620003fb565b9050919050565b6000819050919050565b6200044c836200040f565b620004646200045b8262000437565b848454620003a5565b825550505050565b600090565b6200047b6200046c565b6200048881848462000441565b505050565b5b81811015620004b057620004a460008262000471565b6001810190506200048e565b5050565b601f821115620004ff57620004c98162000373565b620004d48462000388565b81016020851015620004e4578190505b620004fc620004f38562000388565b8301826200048d565b50505b505050565b600082821c905092915050565b6000620005246000198460080262000504565b1980831691505092915050565b60006200053f838362000511565b9150826002028217905092915050565b6200055a82620002d5565b67ffffffffffffffff811115620005765762000575620002e0565b5b6200058282546200033e565b6200058f828285620004b4565b600060209050601f831160018114620005c75760008415620005b2578287015190505b620005be858262000531565b8655506200062e565b601f198416620005d78662000373565b60005b828110156200060157848901518255600182019150602085019450602081019050620005da565b868310156200062157848901516200061d601f89168262000511565b8355505b6001600288020188555050505b505050505050565b62000641816200025e565b82525050565b60006020820190506200065e600083018462000636565b92915050565b61330280620006746000396000f3fe60806040526004361061014b5760003560e01c806370a08231116100b6578063a22cb4651161006f578063a22cb46514610492578063b88d4fde146104bb578063c87b56dd146104e4578063d204c45e14610521578063e985e9c51461053d578063f2fde38b1461057a5761014b565b806370a0823114610394578063715018a6146103d15780638456cb59146103e85780638da5cb5b146103ff57806395d89b411461042a5780639f1cabc6146104555761014b565b80632f745c59116101085780632f745c59146102725780633f4ba83a146102af57806342842e0e146102c65780634f6ccce7146102ef5780635c975abb1461032c5780636352211e146103575761014b565b806301ffc9a71461015057806306fdde031461018d578063081812fc146101b8578063095ea7b3146101f557806318160ddd1461021e57806323b872dd14610249575b600080fd5b34801561015c57600080fd5b5061017760048036038101906101729190612590565b6105a3565b60405161018491906125d8565b60405180910390f35b34801561019957600080fd5b506101a26105b5565b6040516101af9190612683565b60405180910390f35b3480156101c457600080fd5b506101df60048036038101906101da91906126db565b610647565b6040516101ec9190612749565b60405180910390f35b34801561020157600080fd5b5061021c60048036038101906102179190612790565b610663565b005b34801561022a57600080fd5b50610233610679565b60405161024091906127df565b60405180910390f35b34801561025557600080fd5b50610270600480360381019061026b91906127fa565b610686565b005b34801561027e57600080fd5b5061029960048036038101906102949190612790565b610788565b6040516102a691906127df565b60405180910390f35b3480156102bb57600080fd5b506102c4610831565b005b3480156102d257600080fd5b506102ed60048036038101906102e891906127fa565b610843565b005b3480156102fb57600080fd5b50610316600480360381019061031191906126db565b610863565b60405161032391906127df565b60405180910390f35b34801561033857600080fd5b506103416108d9565b60405161034e91906125d8565b60405180910390f35b34801561036357600080fd5b5061037e600480360381019061037991906126db565b6108f0565b60405161038b9190612749565b60405180910390f35b3480156103a057600080fd5b506103bb60048036038101906103b6919061284d565b610902565b6040516103c891906127df565b60405180910390f35b3480156103dd57600080fd5b506103e66109bc565b005b3480156103f457600080fd5b506103fd6109d0565b005b34801561040b57600080fd5b506104146109e2565b6040516104219190612749565b60405180910390f35b34801561043657600080fd5b5061043f610a0c565b60405161044c9190612683565b60405180910390f35b34801561046157600080fd5b5061047c600480360381019061047791906129af565b610a9e565b60405161048991906125d8565b60405180910390f35b34801561049e57600080fd5b506104b960048036038101906104b49190612a24565b610ada565b005b3480156104c757600080fd5b506104e260048036038101906104dd9190612b05565b610af0565b005b3480156104f057600080fd5b5061050b600480360381019061050691906126db565b610b0d565b6040516105189190612683565b60405180910390f35b61053b60048036038101906105369190612b88565b610b1f565b005b34801561054957600080fd5b50610564600480360381019061055f9190612be4565b610c0f565b60405161057191906125d8565b60405180910390f35b34801561058657600080fd5b506105a1600480360381019061059c919061284d565b610ca3565b005b60006105ae82610d29565b9050919050565b6060600080546105c490612c53565b80601f01602080910402602001604051908101604052809291908181526020018280546105f090612c53565b801561063d5780601f106106125761010080835404028352916020019161063d565b820191906000526020600020905b81548152906001019060200180831161062057829003601f168201915b5050505050905090565b600061065282610d8a565b5061065c82610e12565b9050919050565b6106758282610670610e4f565b610e57565b5050565b6000600880549050905090565b600073ffffffffffffffffffffffffffffffffffffffff168273ffffffffffffffffffffffffffffffffffffffff16036106f85760006040517f64a0ae920000000000000000000000000000000000000000000000000000000081526004016106ef9190612749565b60405180910390fd5b600061070c8383610707610e4f565b610e69565b90508373ffffffffffffffffffffffffffffffffffffffff168173ffffffffffffffffffffffffffffffffffffffff1614610782578382826040517f64283d7b00000000000000000000000000000000000000000000000000000000815260040161077993929190612c84565b60405180910390fd5b50505050565b600061079383610902565b82106107d85782826040517fa57d13dc0000000000000000000000000000000000000000000000000000000081526004016107cf929190612cbb565b60405180910390fd5b600660008473ffffffffffffffffffffffffffffffffffffffff1673ffffffffffffffffffffffffffffffffffffffff168152602001908152602001600020600083815260200190815260200160002054905092915050565b610839610e7f565b610841610f06565b565b61085e83838360405180602001604052806000815250610af0565b505050565b600061086d610679565b82106108b3576000826040517fa57d13dc0000000000000000000000000000000000000000000000000000000081526004016108aa929190612cbb565b60405180910390fd5b600882815481106108c7576108c6612ce4565b5b90600052602060002001549050919050565b6000600b60009054906101000a900460ff16905090565b60006108fb82610d8a565b9050919050565b60008073ffffffffffffffffffffffffffffffffffffffff168273ffffffffffffffffffffffffffffffffffffffff16036109755760006040517f89c62b6400000000000000000000000000000000000000000000000000000000815260040161096c9190612749565b60405180910390fd5b600360008373ffffffffffffffffffffffffffffffffffffffff1673ffffffffffffffffffffffffffffffffffffffff168152602001908152602001600020549050919050565b6109c4610e7f565b6109ce6000610f69565b565b6109d8610e7f565b6109e061102f565b565b6000600b60019054906101000a900473ffffffffffffffffffffffffffffffffffffffff16905090565b606060018054610a1b90612c53565b80601f0160208091040260200160405190810160405280929190818152602001828054610a4790612c53565b8015610a945780601f10610a6957610100808354040283529160200191610a94565b820191906000526020600020905b815481529060010190602001808311610a7757829003601f168201915b5050505050905090565b600060011515600d83604051610ab49190612d4f565b908152602001604051809103902060009054906101000a900460ff161515149050919050565b610aec610ae5610e4f565b8383611092565b5050565b610afb848484610686565b610b0784848484611201565b50505050565b6060610b18826113b8565b9050919050565b6611c37937e08000341015610b69576040517f08c379a0000000000000000000000000000000000000000000000000000000008152600401610b6090612db2565b60405180910390fd5b60011515600d82604051610b7d9190612d4f565b908152602001604051809103902060009054906101000a900460ff16151503610bdb576040517f08c379a0000000000000000000000000000000000000000000000000000000008152600401610bd290612e1e565b60405180910390fd5b6000600c6000815480929190610bf090612e6d565b919050559050610c0083826114cb565b610c0a81836114e9565b505050565b6000600560008473ffffffffffffffffffffffffffffffffffffffff1673ffffffffffffffffffffffffffffffffffffffff16815260200190815260200160002060008373ffffffffffffffffffffffffffffffffffffffff1673ffffffffffffffffffffffffffffffffffffffff16815260200190815260200160002060009054906101000a900460ff16905092915050565b610cab610e7f565b600073ffffffffffffffffffffffffffffffffffffffff168173ffffffffffffffffffffffffffffffffffffffff1603610d1d5760006040517f1e4fbdf7000000000000000000000000000000000000000000000000000000008152600401610d149190612749565b60405180910390fd5b610d2681610f69565b50565b6000634906490660e01b7bffffffffffffffffffffffffffffffffffffffffffffffffffffffff1916827bffffffffffffffffffffffffffffffffffffffffffffffffffffffff19161480610d835750610d8282611545565b5b9050919050565b600080610d96836115bf565b9050600073ffffffffffffffffffffffffffffffffffffffff168173ffffffffffffffffffffffffffffffffffffffff1603610e0957826040517f7e273289000000000000000000000000000000000000000000000000000000008152600401610e0091906127df565b60405180910390fd5b80915050919050565b60006004600083815260200190815260200160002060009054906101000a900473ffffffffffffffffffffffffffffffffffffffff169050919050565b600033905090565b610e6483838360016115fc565b505050565b6000610e768484846117c1565b90509392505050565b610e87610e4f565b73ffffffffffffffffffffffffffffffffffffffff16610ea56109e2565b73ffffffffffffffffffffffffffffffffffffffff1614610f0457610ec8610e4f565b6040517f118cdaa7000000000000000000000000000000000000000000000000000000008152600401610efb9190612749565b60405180910390fd5b565b610f0e6117df565b6000600b60006101000a81548160ff0219169083151502179055507f5db9ee0a495bf2e6ff9c91a7834c1ba4fdd244a5e8aa4e537bd38aeae4b073aa610f52610e4f565b604051610f5f9190612749565b60405180910390a1565b6000600b60019054906101000a900473ffffffffffffffffffffffffffffffffffffffff16905081600b60016101000a81548173ffffffffffffffffffffffffffffffffffffffff021916908373ffffffffffffffffffffffffffffffffffffffff1602179055508173ffffffffffffffffffffffffffffffffffffffff168173ffffffffffffffffffffffffffffffffffffffff167f8be0079c531659141344cd1fd0a4f28419497f9722a3daafe3b4186f6b6457e060405160405180910390a35050565b61103761181f565b6001600b60006101000a81548160ff0219169083151502179055507f62e78cea01bee320cd4e420270b5ea74000d11b0c9f74754ebdbfc544b05a25861107b610e4f565b6040516110889190612749565b60405180910390a1565b600073ffffffffffffffffffffffffffffffffffffffff168273ffffffffffffffffffffffffffffffffffffffff160361110357816040517f5b08ba180000000000000000000000000000000000000000000000000000000081526004016110fa9190612749565b60405180910390fd5b80600560008573ffffffffffffffffffffffffffffffffffffffff1673ffffffffffffffffffffffffffffffffffffffff16815260200190815260200160002060008473ffffffffffffffffffffffffffffffffffffffff1673ffffffffffffffffffffffffffffffffffffffff16815260200190815260200160002060006101000a81548160ff0219169083151502179055508173ffffffffffffffffffffffffffffffffffffffff168373ffffffffffffffffffffffffffffffffffffffff167f17307eab39ab6107e8899845ad3d59bd9653f200f220920489ca2b5937696c31836040516111f491906125d8565b60405180910390a3505050565b60008373ffffffffffffffffffffffffffffffffffffffff163b11156113b2578273ffffffffffffffffffffffffffffffffffffffff1663150b7a02611245610e4f565b8685856040518563ffffffff1660e01b81526004016112679493929190612f0a565b6020604051808303816000875af19250505080156112a357506040513d601f19601f820116820180604052508101906112a09190612f6b565b60015b611327573d80600081146112d3576040519150601f19603f3d011682016040523d82523d6000602084013e6112d8565b606091505b50600081510361131f57836040517f64a0ae920000000000000000000000000000000000000000000000000000000081526004016113169190612749565b60405180910390fd5b805181602001fd5b63150b7a0260e01b7bffffffffffffffffffffffffffffffffffffffffffffffffffffffff1916817bffffffffffffffffffffffffffffffffffffffffffffffffffffffff1916146113b057836040517f64a0ae920000000000000000000000000000000000000000000000000000000081526004016113a79190612749565b60405180910390fd5b505b50505050565b60606113c382610d8a565b506000600a600084815260200190815260200160002080546113e490612c53565b80601f016020809104026020016040519081016040528092919081815260200182805461141090612c53565b801561145d5780601f106114325761010080835404028352916020019161145d565b820191906000526020600020905b81548152906001019060200180831161144057829003601f168201915b50505050509050600061146e611860565b905060008151036114835781925050506114c6565b6000825111156114b85780826040516020016114a0929190612f98565b604051602081830303815290604052925050506114c6565b6114c184611877565b925050505b919050565b6114e58282604051806020016040528060008152506118e0565b5050565b80600a600084815260200190815260200160002090816115099190613168565b507ff8e1a15aba9398e019f0b49df1a4fde98ee17ae345cb5f6b5e2c27f5033e8ce78260405161153991906127df565b60405180910390a15050565b60007f780e9d63000000000000000000000000000000000000000000000000000000007bffffffffffffffffffffffffffffffffffffffffffffffffffffffff1916827bffffffffffffffffffffffffffffffffffffffffffffffffffffffff191614806115b857506115b7826118fc565b5b9050919050565b60006002600083815260200190815260200160002060009054906101000a900473ffffffffffffffffffffffffffffffffffffffff169050919050565b80806116355750600073ffffffffffffffffffffffffffffffffffffffff168273ffffffffffffffffffffffffffffffffffffffff1614155b1561176957600061164584610d8a565b9050600073ffffffffffffffffffffffffffffffffffffffff168373ffffffffffffffffffffffffffffffffffffffff16141580156116b057508273ffffffffffffffffffffffffffffffffffffffff168173ffffffffffffffffffffffffffffffffffffffff1614155b80156116c357506116c18184610c0f565b155b1561170557826040517fa9fbf51f0000000000000000000000000000000000000000000000000000000081526004016116fc9190612749565b60405180910390fd5b811561176757838573ffffffffffffffffffffffffffffffffffffffff168273ffffffffffffffffffffffffffffffffffffffff167f8c5be1e5ebec7d5bd14f71427d1e84f3dd0314c0f7b2291e5b200ac8c7c3b92560405160405180910390a45b505b836004600085815260200190815260200160002060006101000a81548173ffffffffffffffffffffffffffffffffffffffff021916908373ffffffffffffffffffffffffffffffffffffffff16021790555050505050565b60006117cb61181f565b6117d68484846119de565b90509392505050565b6117e76108d9565b61181d576040517f8dfc202b00000000000000000000000000000000000000000000000000000000815260040160405180910390fd5b565b6118276108d9565b1561185e576040517fd93c066500000000000000000000000000000000000000000000000000000000815260040160405180910390fd5b565b606060405180602001604052806000815250905090565b606061188282610d8a565b50600061188d611860565b905060008151116118ad57604051806020016040528060008152506118d8565b806118b784611afb565b6040516020016118c8929190612f98565b6040516020818303038152906040525b915050919050565b6118ea8383611bc9565b6118f76000848484611201565b505050565b60007f80ac58cd000000000000000000000000000000000000000000000000000000007bffffffffffffffffffffffffffffffffffffffffffffffffffffffff1916827bffffffffffffffffffffffffffffffffffffffffffffffffffffffff191614806119c757507f5b5e139f000000000000000000000000000000000000000000000000000000007bffffffffffffffffffffffffffffffffffffffffffffffffffffffff1916827bffffffffffffffffffffffffffffffffffffffffffffffffffffffff1916145b806119d757506119d682611cc2565b5b9050919050565b6000806119ec858585611d2c565b9050600073ffffffffffffffffffffffffffffffffffffffff168173ffffffffffffffffffffffffffffffffffffffff1603611a3057611a2b84611f46565b611a6f565b8473ffffffffffffffffffffffffffffffffffffffff168173ffffffffffffffffffffffffffffffffffffffff1614611a6e57611a6d8185611f8f565b5b5b600073ffffffffffffffffffffffffffffffffffffffff168573ffffffffffffffffffffffffffffffffffffffff1603611ab157611aac846120f0565b611af0565b8473ffffffffffffffffffffffffffffffffffffffff168173ffffffffffffffffffffffffffffffffffffffff1614611aef57611aee85856121c1565b5b5b809150509392505050565b606060006001611b0a8461224c565b01905060008167ffffffffffffffff811115611b2957611b28612884565b5b6040519080825280601f01601f191660200182016040528015611b5b5781602001600182028036833780820191505090505b509050600082602001820190505b600115611bbe578080600190039150507f3031323334353637383961626364656600000000000000000000000000000000600a86061a8153600a8581611bb257611bb161323a565b5b04945060008503611b69575b819350505050919050565b600073ffffffffffffffffffffffffffffffffffffffff168273ffffffffffffffffffffffffffffffffffffffff1603611c3b5760006040517f64a0ae92000000000000000000000000000000000000000000000000000000008152600401611c329190612749565b60405180910390fd5b6000611c4983836000610e69565b9050600073ffffffffffffffffffffffffffffffffffffffff168173ffffffffffffffffffffffffffffffffffffffff1614611cbd5760006040517f73c6ac6e000000000000000000000000000000000000000000000000000000008152600401611cb49190612749565b60405180910390fd5b505050565b60007f01ffc9a7000000000000000000000000000000000000000000000000000000007bffffffffffffffffffffffffffffffffffffffffffffffffffffffff1916827bffffffffffffffffffffffffffffffffffffffffffffffffffffffff1916149050919050565b600080611d38846115bf565b9050600073ffffffffffffffffffffffffffffffffffffffff168373ffffffffffffffffffffffffffffffffffffffff1614611d7a57611d7981848661239f565b5b600073ffffffffffffffffffffffffffffffffffffffff168173ffffffffffffffffffffffffffffffffffffffff1614611e0b57611dbc6000856000806115fc565b6001600360008373ffffffffffffffffffffffffffffffffffffffff1673ffffffffffffffffffffffffffffffffffffffff168152602001908152602001600020600082825403925050819055505b600073ffffffffffffffffffffffffffffffffffffffff168573ffffffffffffffffffffffffffffffffffffffff1614611e8e576001600360008773ffffffffffffffffffffffffffffffffffffffff1673ffffffffffffffffffffffffffffffffffffffff168152602001908152602001600020600082825401925050819055505b846002600086815260200190815260200160002060006101000a81548173ffffffffffffffffffffffffffffffffffffffff021916908373ffffffffffffffffffffffffffffffffffffffff160217905550838573ffffffffffffffffffffffffffffffffffffffff168273ffffffffffffffffffffffffffffffffffffffff167fddf252ad1be2c89b69c2b068fc378daa952ba7f163c4a11628f55a4df523b3ef60405160405180910390a4809150509392505050565b6008805490506009600083815260200190815260200160002081905550600881908060018154018082558091505060019003906000526020600020016000909190919091505550565b6000611f9a83610902565b905060006007600084815260200190815260200160002054905081811461207f576000600660008673ffffffffffffffffffffffffffffffffffffffff1673ffffffffffffffffffffffffffffffffffffffff168152602001908152602001600020600084815260200190815260200160002054905080600660008773ffffffffffffffffffffffffffffffffffffffff1673ffffffffffffffffffffffffffffffffffffffff168152602001908152602001600020600084815260200190815260200160002081905550816007600083815260200190815260200160002081905550505b6007600084815260200190815260200160002060009055600660008573ffffffffffffffffffffffffffffffffffffffff1673ffffffffffffffffffffffffffffffffffffffff16815260200190815260200160002060008381526020019081526020016000206000905550505050565b600060016008805490506121049190613269565b905060006009600084815260200190815260200160002054905060006008838154811061213457612133612ce4565b5b90600052602060002001549050806008838154811061215657612155612ce4565b5b9060005260206000200181905550816009600083815260200190815260200160002081905550600960008581526020019081526020016000206000905560088054806121a5576121a461329d565b5b6001900381819060005260206000200160009055905550505050565b600060016121ce84610902565b6121d89190613269565b905081600660008573ffffffffffffffffffffffffffffffffffffffff1673ffffffffffffffffffffffffffffffffffffffff168152602001908152602001600020600083815260200190815260200160002081905550806007600084815260200190815260200160002081905550505050565b600080600090507a184f03e93ff9f4daa797ed6e38ed64bf6a1f01000000000000000083106122aa577a184f03e93ff9f4daa797ed6e38ed64bf6a1f01000000000000000083816122a05761229f61323a565b5b0492506040810190505b6d04ee2d6d415b85acef810000000083106122e7576d04ee2d6d415b85acef810000000083816122dd576122dc61323a565b5b0492506020810190505b662386f26fc10000831061231657662386f26fc10000838161230c5761230b61323a565b5b0492506010810190505b6305f5e100831061233f576305f5e10083816123355761233461323a565b5b0492506008810190505b612710831061236457612710838161235a5761235961323a565b5b0492506004810190505b60648310612387576064838161237d5761237c61323a565b5b0492506002810190505b600a8310612396576001810190505b80915050919050565b6123aa838383612463565b61245e57600073ffffffffffffffffffffffffffffffffffffffff168373ffffffffffffffffffffffffffffffffffffffff160361241f57806040517f7e27328900000000000000000000000000000000000000000000000000000000815260040161241691906127df565b60405180910390fd5b81816040517f177e802f000000000000000000000000000000000000000000000000000000008152600401612455929190612cbb565b60405180910390fd5b505050565b60008073ffffffffffffffffffffffffffffffffffffffff168373ffffffffffffffffffffffffffffffffffffffff161415801561251b57508273ffffffffffffffffffffffffffffffffffffffff168473ffffffffffffffffffffffffffffffffffffffff1614806124dc57506124db8484610c0f565b5b8061251a57508273ffffffffffffffffffffffffffffffffffffffff1661250283610e12565b73ffffffffffffffffffffffffffffffffffffffff16145b5b90509392505050565b6000604051905090565b600080fd5b600080fd5b60007fffffffff0000000000000000000000000000000000000000000000000000000082169050919050565b61256d81612538565b811461257857600080fd5b50565b60008135905061258a81612564565b92915050565b6000602082840312156125a6576125a561252e565b5b60006125b48482850161257b565b91505092915050565b60008115159050919050565b6125d2816125bd565b82525050565b60006020820190506125ed60008301846125c9565b92915050565b600081519050919050565b600082825260208201905092915050565b60005b8381101561262d578082015181840152602081019050612612565b60008484015250505050565b6000601f19601f8301169050919050565b6000612655826125f3565b61265f81856125fe565b935061266f81856020860161260f565b61267881612639565b840191505092915050565b6000602082019050818103600083015261269d818461264a565b905092915050565b6000819050919050565b6126b8816126a5565b81146126c357600080fd5b50565b6000813590506126d5816126af565b92915050565b6000602082840312156126f1576126f061252e565b5b60006126ff848285016126c6565b91505092915050565b600073ffffffffffffffffffffffffffffffffffffffff82169050919050565b600061273382612708565b9050919050565b61274381612728565b82525050565b600060208201905061275e600083018461273a565b92915050565b61276d81612728565b811461277857600080fd5b50565b60008135905061278a81612764565b92915050565b600080604083850312156127a7576127a661252e565b5b60006127b58582860161277b565b92505060206127c6858286016126c6565b9150509250929050565b6127d9816126a5565b82525050565b60006020820190506127f460008301846127d0565b92915050565b6000806000606084860312156128135761281261252e565b5b60006128218682870161277b565b93505060206128328682870161277b565b9250506040612843868287016126c6565b9150509250925092565b6000602082840312156128635761286261252e565b5b60006128718482850161277b565b91505092915050565b600080fd5b600080fd5b7f4e487b7100000000000000000000000000000000000000000000000000000000600052604160045260246000fd5b6128bc82612639565b810181811067ffffffffffffffff821117156128db576128da612884565b5b80604052505050565b60006128ee612524565b90506128fa82826128b3565b919050565b600067ffffffffffffffff82111561291a57612919612884565b5b61292382612639565b9050602081019050919050565b82818337600083830152505050565b600061295261294d846128ff565b6128e4565b90508281526020810184848401111561296e5761296d61287f565b5b612979848285612930565b509392505050565b600082601f8301126129965761299561287a565b5b81356129a684826020860161293f565b91505092915050565b6000602082840312156129c5576129c461252e565b5b600082013567ffffffffffffffff8111156129e3576129e2612533565b5b6129ef84828501612981565b91505092915050565b612a01816125bd565b8114612a0c57600080fd5b50565b600081359050612a1e816129f8565b92915050565b60008060408385031215612a3b57612a3a61252e565b5b6000612a498582860161277b565b9250506020612a5a85828601612a0f565b9150509250929050565b600067ffffffffffffffff821115612a7f57612a7e612884565b5b612a8882612639565b9050602081019050919050565b6000612aa8612aa384612a64565b6128e4565b905082815260208101848484011115612ac457612ac361287f565b5b612acf848285612930565b509392505050565b600082601f830112612aec57612aeb61287a565b5b8135612afc848260208601612a95565b91505092915050565b60008060008060808587031215612b1f57612b1e61252e565b5b6000612b2d8782880161277b565b9450506020612b3e8782880161277b565b9350506040612b4f878288016126c6565b925050606085013567ffffffffffffffff811115612b7057612b6f612533565b5b612b7c87828801612ad7565b91505092959194509250565b60008060408385031215612b9f57612b9e61252e565b5b6000612bad8582860161277b565b925050602083013567ffffffffffffffff811115612bce57612bcd612533565b5b612bda85828601612981565b9150509250929050565b60008060408385031215612bfb57612bfa61252e565b5b6000612c098582860161277b565b9250506020612c1a8582860161277b565b9150509250929050565b7f4e487b7100000000000000000000000000000000000000000000000000000000600052602260045260246000fd5b60006002820490506001821680612c6b57607f821691505b602082108103612c7e57612c7d612c24565b5b50919050565b6000606082019050612c99600083018661273a565b612ca660208301856127d0565b612cb3604083018461273a565b949350505050565b6000604082019050612cd0600083018561273a565b612cdd60208301846127d0565b9392505050565b7f4e487b7100000000000000000000000000000000000000000000000000000000600052603260045260246000fd5b600081905092915050565b6000612d29826125f3565b612d338185612d13565b9350612d4381856020860161260f565b80840191505092915050565b6000612d5b8284612d1e565b915081905092915050565b7f4e65656420746f20706179207570210000000000000000000000000000000000600082015250565b6000612d9c600f836125fe565b9150612da782612d66565b602082019050919050565b60006020820190508181036000830152612dcb81612d8f565b9050919050565b7f4e465420616c7265616479206d696e7465642100000000000000000000000000600082015250565b6000612e086013836125fe565b9150612e1382612dd2565b602082019050919050565b60006020820190508181036000830152612e3781612dfb565b9050919050565b7f4e487b7100000000000000000000000000000000000000000000000000000000600052601160045260246000fd5b6000612e78826126a5565b91507fffffffffffffffffffffffffffffffffffffffffffffffffffffffffffffffff8203612eaa57612ea9612e3e565b5b600182019050919050565b600081519050919050565b600082825260208201905092915050565b6000612edc82612eb5565b612ee68185612ec0565b9350612ef681856020860161260f565b612eff81612639565b840191505092915050565b6000608082019050612f1f600083018761273a565b612f2c602083018661273a565b612f3960408301856127d0565b8181036060830152612f4b8184612ed1565b905095945050505050565b600081519050612f6581612564565b92915050565b600060208284031215612f8157612f8061252e565b5b6000612f8f84828501612f56565b91505092915050565b6000612fa48285612d1e565b9150612fb08284612d1e565b91508190509392505050565b60008190508160005260206000209050919050565b60006020601f8301049050919050565b600082821b905092915050565b60006008830261301e7fffffffffffffffffffffffffffffffffffffffffffffffffffffffffffffffff82612fe1565b6130288683612fe1565b95508019841693508086168417925050509392505050565b6000819050919050565b600061306561306061305b846126a5565b613040565b6126a5565b9050919050565b6000819050919050565b61307f8361304a565b61309361308b8261306c565b848454612fee565b825550505050565b600090565b6130a861309b565b6130b3818484613076565b505050565b5b818110156130d7576130cc6000826130a0565b6001810190506130b9565b5050565b601f82111561311c576130ed81612fbc565b6130f684612fd1565b81016020851015613105578190505b61311961311185612fd1565b8301826130b8565b50505b505050565b600082821c905092915050565b600061313f60001984600802613121565b1980831691505092915050565b6000613158838361312e565b9150826002028217905092915050565b613171826125f3565b67ffffffffffffffff81111561318a57613189612884565b5b6131948254612c53565b61319f8282856130db565b600060209050601f8311600181146131d257600084156131c0578287015190505b6131ca858261314c565b865550613232565b601f1984166131e086612fbc565b60005b82811015613208578489015182556001820191506020850194506020810190506131e3565b868310156132255784890151613221601f89168261312e565b8355505b6001600288020188555050505b505050505050565b7f4e487b7100000000000000000000000000000000000000000000000000000000600052601260045260246000fd5b6000613274826126a5565b915061327f836126a5565b925082820390508181111561329757613296612e3e565b5b92915050565b7f4e487b7100000000000000000000000000000000000000000000000000000000600052603160045260246000fdfea26469706673582212207c6987f93a4e32c08674eec7061918c90a279feb7579bb9efc8543da57a6e91364736f6c63430008140033",
  "linkReferences": {},
  "deployedLinkReferences": {}
}